{
  "contractName": "TokenProject1",
  "abi": [
    {
      "anonymous": false,
      "inputs": [
        {
          "indexed": true,
          "internalType": "address",
          "name": "owner",
          "type": "address"
        },
        {
          "indexed": true,
          "internalType": "address",
          "name": "spender",
          "type": "address"
        },
        {
          "indexed": false,
          "internalType": "uint256",
          "name": "value",
          "type": "uint256"
        }
      ],
      "name": "Approval",
      "type": "event"
    },
    {
      "anonymous": false,
      "inputs": [
        {
          "indexed": true,
          "internalType": "address",
          "name": "from",
          "type": "address"
        },
        {
          "indexed": true,
          "internalType": "address",
          "name": "to",
          "type": "address"
        },
        {
          "indexed": false,
          "internalType": "uint256",
          "name": "value",
          "type": "uint256"
        }
      ],
      "name": "Transfer",
      "type": "event"
    },
    {
      "inputs": [
        {
          "internalType": "address",
          "name": "",
          "type": "address"
        },
        {
          "internalType": "address",
          "name": "",
          "type": "address"
        }
      ],
      "name": "allowance",
      "outputs": [
        {
          "internalType": "uint256",
          "name": "",
          "type": "uint256"
        }
      ],
      "stateMutability": "view",
      "type": "function",
      "constant": true
    },
    {
      "inputs": [
        {
          "internalType": "address",
          "name": "",
          "type": "address"
        }
      ],
      "name": "balanceOf",
      "outputs": [
        {
          "internalType": "uint256",
          "name": "",
          "type": "uint256"
        }
      ],
      "stateMutability": "view",
      "type": "function",
      "constant": true
    },
    {
      "inputs": [],
      "name": "decimals",
      "outputs": [
        {
          "internalType": "uint8",
          "name": "",
          "type": "uint8"
        }
      ],
      "stateMutability": "view",
      "type": "function",
      "constant": true
    },
    {
      "inputs": [],
      "name": "name",
      "outputs": [
        {
          "internalType": "string",
          "name": "",
          "type": "string"
        }
      ],
      "stateMutability": "view",
      "type": "function",
      "constant": true
    },
    {
      "inputs": [],
      "name": "newvar1",
      "outputs": [
        {
          "internalType": "uint8",
          "name": "",
          "type": "uint8"
        }
      ],
      "stateMutability": "view",
      "type": "function",
      "constant": true
    },
    {
      "inputs": [],
      "name": "symbol",
      "outputs": [
        {
          "internalType": "string",
          "name": "",
          "type": "string"
        }
      ],
      "stateMutability": "view",
      "type": "function",
      "constant": true
    },
    {
      "inputs": [],
      "name": "totalSupply",
      "outputs": [
        {
          "internalType": "uint256",
          "name": "",
          "type": "uint256"
        }
      ],
      "stateMutability": "view",
      "type": "function",
      "constant": true
    },
    {
      "inputs": [
        {
          "internalType": "address",
          "name": "recipient",
          "type": "address"
        },
        {
          "internalType": "uint256",
          "name": "amount",
          "type": "uint256"
        }
      ],
      "name": "transfer",
      "outputs": [
        {
          "internalType": "bool",
          "name": "",
          "type": "bool"
        }
      ],
      "stateMutability": "nonpayable",
      "type": "function"
    },
    {
      "inputs": [
        {
          "internalType": "address",
          "name": "spender",
          "type": "address"
        },
        {
          "internalType": "uint256",
          "name": "amount",
          "type": "uint256"
        }
      ],
      "name": "approve",
      "outputs": [
        {
          "internalType": "bool",
          "name": "",
          "type": "bool"
        }
      ],
      "stateMutability": "nonpayable",
      "type": "function"
    },
    {
      "inputs": [
        {
          "internalType": "address",
          "name": "sender",
          "type": "address"
        },
        {
          "internalType": "address",
          "name": "recipient",
          "type": "address"
        },
        {
          "internalType": "uint256",
          "name": "amount",
          "type": "uint256"
        }
      ],
      "name": "transferFrom",
      "outputs": [
        {
          "internalType": "bool",
          "name": "",
          "type": "bool"
        }
      ],
      "stateMutability": "nonpayable",
      "type": "function"
    },
    {
      "inputs": [
        {
          "internalType": "uint256",
          "name": "amount",
          "type": "uint256"
        }
      ],
      "name": "mint",
      "outputs": [],
      "stateMutability": "nonpayable",
      "type": "function"
    }
  ],
  "bytecode": "0x60806040526040518060400160405280600d81526020017f546f6b656e50726f6a6563743100000000000000000000000000000000000000815250600390816200004a919062000358565b506040518060400160405280600481526020017f54504d31000000000000000000000000000000000000000000000000000000008152506004908162000091919062000358565b506012600560006101000a81548160ff021916908360ff1602179055506014600560016101000a81548160ff021916908360ff160217905550348015620000d757600080fd5b506200043f565b600081519050919050565b7f4e487b7100000000000000000000000000000000000000000000000000000000600052604160045260246000fd5b7f4e487b7100000000000000000000000000000000000000000000000000000000600052602260045260246000fd5b600060028204905060018216806200016057607f821691505b60208210810362000176576200017562000118565b5b50919050565b60008190508160005260206000209050919050565b60006020601f8301049050919050565b600082821b905092915050565b600060088302620001e07fffffffffffffffffffffffffffffffffffffffffffffffffffffffffffffffff82620001a1565b620001ec8683620001a1565b95508019841693508086168417925050509392505050565b6000819050919050565b6000819050919050565b600062000239620002336200022d8462000204565b6200020e565b62000204565b9050919050565b6000819050919050565b620002558362000218565b6200026d620002648262000240565b848454620001ae565b825550505050565b600090565b6200028462000275565b620002918184846200024a565b505050565b5b81811015620002b957620002ad6000826200027a565b60018101905062000297565b5050565b601f8211156200030857620002d2816200017c565b620002dd8462000191565b81016020851015620002ed578190505b62000305620002fc8562000191565b83018262000296565b50505b505050565b600082821c905092915050565b60006200032d600019846008026200030d565b1980831691505092915050565b60006200034883836200031a565b9150826002028217905092915050565b6200036382620000de565b67ffffffffffffffff8111156200037f576200037e620000e9565b5b6200038b825462000147565b62000398828285620002bd565b600060209050601f831160018114620003d05760008415620003bb578287015190505b620003c785826200033a565b86555062000437565b601f198416620003e0866200017c565b60005b828110156200040a57848901518255600182019150602085019450602081019050620003e3565b868310156200042a578489015162000426601f8916826200031a565b8355505b6001600288020188555050505b505050505050565b610ca8806200044f6000396000f3fe608060405234801561001057600080fd5b50600436106100a95760003560e01c80633aa58286116100715780633aa582861461016857806370a082311461018657806395d89b41146101b6578063a0712d68146101d4578063a9059cbb146101f0578063dd62ed3e14610220576100a9565b806306fdde03146100ae578063095ea7b3146100cc57806318160ddd146100fc57806323b872dd1461011a578063313ce5671461014a575b600080fd5b6100b6610250565b6040516100c391906108fc565b60405180910390f35b6100e660048036038101906100e191906109b7565b6102de565b6040516100f39190610a12565b60405180910390f35b6101046103d0565b6040516101119190610a3c565b60405180910390f35b610134600480360381019061012f9190610a57565b6103d6565b6040516101419190610a12565b60405180910390f35b610152610587565b60405161015f9190610ac6565b60405180910390f35b61017061059a565b60405161017d9190610ac6565b60405180910390f35b6101a0600480360381019061019b9190610ae1565b6105ad565b6040516101ad9190610a3c565b60405180910390f35b6101be6105c5565b6040516101cb91906108fc565b60405180910390f35b6101ee60048036038101906101e99190610b0e565b610653565b005b61020a600480360381019061020591906109b7565b61072a565b6040516102179190610a12565b60405180910390f35b61023a60048036038101906102359190610b3b565b610847565b6040516102479190610a3c565b60405180910390f35b6003805461025d90610baa565b80601f016020809104026020016040519081016040528092919081815260200182805461028990610baa565b80156102d65780601f106102ab576101008083540402835291602001916102d6565b820191906000526020600020905b8154815290600101906020018083116102b957829003601f168201915b505050505081565b600081600260003373ffffffffffffffffffffffffffffffffffffffff1673ffffffffffffffffffffffffffffffffffffffff16815260200190815260200160002060008573ffffffffffffffffffffffffffffffffffffffff1673ffffffffffffffffffffffffffffffffffffffff168152602001908152602001600020819055508273ffffffffffffffffffffffffffffffffffffffff163373ffffffffffffffffffffffffffffffffffffffff167f8c5be1e5ebec7d5bd14f71427d1e84f3dd0314c0f7b2291e5b200ac8c7c3b925846040516103be9190610a3c565b60405180910390a36001905092915050565b60005481565b600081600260008673ffffffffffffffffffffffffffffffffffffffff1673ffffffffffffffffffffffffffffffffffffffff16815260200190815260200160002060003373ffffffffffffffffffffffffffffffffffffffff1673ffffffffffffffffffffffffffffffffffffffff16815260200190815260200160002060008282546104649190610c0a565b9250508190555081600160008673ffffffffffffffffffffffffffffffffffffffff1673ffffffffffffffffffffffffffffffffffffffff16815260200190815260200160002060008282546104ba9190610c0a565b9250508190555081600160008573ffffffffffffffffffffffffffffffffffffffff1673ffffffffffffffffffffffffffffffffffffffff16815260200190815260200160002060008282546105109190610c3e565b925050819055508273ffffffffffffffffffffffffffffffffffffffff168473ffffffffffffffffffffffffffffffffffffffff167fddf252ad1be2c89b69c2b068fc378daa952ba7f163c4a11628f55a4df523b3ef846040516105749190610a3c565b60405180910390a3600190509392505050565b600560009054906101000a900460ff1681565b600560019054906101000a900460ff1681565b60016020528060005260406000206000915090505481565b600480546105d290610baa565b80601f01602080910402602001604051908101604052809291908181526020018280546105fe90610baa565b801561064b5780601f106106205761010080835404028352916020019161064b565b820191906000526020600020905b81548152906001019060200180831161062e57829003601f168201915b505050505081565b80600160003373ffffffffffffffffffffffffffffffffffffffff1673ffffffffffffffffffffffffffffffffffffffff16815260200190815260200160002060008282546106a29190610c3e565b92505081905550806000808282546106ba9190610c3e565b925050819055503373ffffffffffffffffffffffffffffffffffffffff16600073ffffffffffffffffffffffffffffffffffffffff167fddf252ad1be2c89b69c2b068fc378daa952ba7f163c4a11628f55a4df523b3ef8360405161071f9190610a3c565b60405180910390a350565b600081600160003373ffffffffffffffffffffffffffffffffffffffff1673ffffffffffffffffffffffffffffffffffffffff168152602001908152602001600020600082825461077b9190610c0a565b9250508190555081600160008573ffffffffffffffffffffffffffffffffffffffff1673ffffffffffffffffffffffffffffffffffffffff16815260200190815260200160002060008282546107d19190610c3e565b925050819055508273ffffffffffffffffffffffffffffffffffffffff163373ffffffffffffffffffffffffffffffffffffffff167fddf252ad1be2c89b69c2b068fc378daa952ba7f163c4a11628f55a4df523b3ef846040516108359190610a3c565b60405180910390a36001905092915050565b6002602052816000526040600020602052806000526040600020600091509150505481565b600081519050919050565b600082825260208201905092915050565b60005b838110156108a657808201518184015260208101905061088b565b60008484015250505050565b6000601f19601f8301169050919050565b60006108ce8261086c565b6108d88185610877565b93506108e8818560208601610888565b6108f1816108b2565b840191505092915050565b6000602082019050818103600083015261091681846108c3565b905092915050565b600080fd5b600073ffffffffffffffffffffffffffffffffffffffff82169050919050565b600061094e82610923565b9050919050565b61095e81610943565b811461096957600080fd5b50565b60008135905061097b81610955565b92915050565b6000819050919050565b61099481610981565b811461099f57600080fd5b50565b6000813590506109b18161098b565b92915050565b600080604083850312156109ce576109cd61091e565b5b60006109dc8582860161096c565b92505060206109ed858286016109a2565b9150509250929050565b60008115159050919050565b610a0c816109f7565b82525050565b6000602082019050610a276000830184610a03565b92915050565b610a3681610981565b82525050565b6000602082019050610a516000830184610a2d565b92915050565b600080600060608486031215610a7057610a6f61091e565b5b6000610a7e8682870161096c565b9350506020610a8f8682870161096c565b9250506040610aa0868287016109a2565b9150509250925092565b600060ff82169050919050565b610ac081610aaa565b82525050565b6000602082019050610adb6000830184610ab7565b92915050565b600060208284031215610af757610af661091e565b5b6000610b058482850161096c565b91505092915050565b600060208284031215610b2457610b2361091e565b5b6000610b32848285016109a2565b91505092915050565b60008060408385031215610b5257610b5161091e565b5b6000610b608582860161096c565b9250506020610b718582860161096c565b9150509250929050565b7f4e487b7100000000000000000000000000000000000000000000000000000000600052602260045260246000fd5b60006002820490506001821680610bc257607f821691505b602082108103610bd557610bd4610b7b565b5b50919050565b7f4e487b7100000000000000000000000000000000000000000000000000000000600052601160045260246000fd5b6000610c1582610981565b9150610c2083610981565b9250828203905081811115610c3857610c37610bdb565b5b92915050565b6000610c4982610981565b9150610c5483610981565b9250828201905080821115610c6c57610c6b610bdb565b5b9291505056fea26469706673582212209d2aee06c30f91d85e7303752fd28fc1c9837b091a1ee38ceaf0bd210e0ab6e464736f6c63430008130033",
  "immutableReferences": {},
  "source": "// SPDX-License-Identifier: MIT\npragma solidity ^0.8.19;\n\n\ninterface IERC20 {\n    function totalSupply() external view returns (uint);\n\n    function balanceOf(address account) external view returns (uint);\n\n    function transfer(address recipient, uint amount) external returns (bool);\n\n    function allowance(address owner, address spender) external view returns (uint);\n\n    function approve(address spender, uint amount) external returns (bool);\n\n    function transferFrom(\n        address sender,\n        address recipient,\n        uint amount\n    ) external returns (bool);\n\n    event Transfer(address indexed from, address indexed to, uint value);\n    event Approval(address indexed owner, address indexed spender, uint value);\n}\n\ncontract TokenProject1 is IERC20 {\n    uint public totalSupply;\n    mapping(address => uint) public balanceOf;\n    mapping(address => mapping(address => uint)) public allowance;\n    string public name = \"TokenProject1\";\n    string public symbol = \"TPM1\";\n    uint8 public decimals = 18;\n    uint8 public newvar1 = 20;\n\n    function transfer(address recipient, uint amount) external returns (bool) {\n        balanceOf[msg.sender] -= amount;\n        balanceOf[recipient] += amount;\n        emit Transfer(msg.sender, recipient, amount);\n        return true;\n    }\n\n    function approve(address spender, uint amount) external returns (bool) {\n        allowance[msg.sender][spender] = amount;\n        emit Approval(msg.sender, spender, amount);\n        return true;\n    }\n\n    function transferFrom(\n        address sender,\n        address recipient,\n        uint amount\n    ) external returns (bool) {\n        allowance[sender][msg.sender] -= amount;\n        balanceOf[sender] -= amount;\n        balanceOf[recipient] += amount;\n        emit Transfer(sender, recipient, amount);\n        return true;\n    }\n\n    function mint(uint amount) external {\n        balanceOf[msg.sender] += amount;\n        totalSupply += amount;\n        emit Transfer(address(0), msg.sender, amount);\n    }\n\n}",
  "sourcePath": "/Users/admin/Documents/Dev/TokenProject2/contracts/TokenProject1.sol",
  "compiler": {
    "name": "solc",
    "version": "0.8.19+commit.7dd6d404.Emscripten.clang"
  },
  "schemaVersion": "3.4.13",
  "updatedAt": "2023-03-17T04:38:50.521Z",
  "networkType": "ethereum",
  "devdoc": {
    "kind": "dev",
    "methods": {},
    "version": 1
  },
  "userdoc": {
    "kind": "user",
    "methods": {},
    "version": 1
  }
}